:0C800000F8B5C046F8BC08BC9E467047AE
:1080100010B50021040001F03BFC044B1868C36B51
:10802000002B00D09847200001F06EFB609A000002
:10803000034B10B5002B02D0024801F07FFC10BDAD
:10804000000000004D99000010B5064C2378002B6D
:1080500007D1054B002B02D0044800E000BF0123EC
:10806000237010BDC49E0100000000006C9A000047
:10807000044B10B5002B03D00349044800E000BFB7
:1080800010BDC04600000000C89E01006C9A0000B0
:10809000402292029A1A92467047C046174B002B14
:1080A00000D1134B9D46FFF7F3FF00218B460F468F
:1080B0001348144A121A01F0E3FB0E4B002B00D0B8
:1080C00098470D4B002B00D098470020002104005A
:1080D0000D000D48002802D00C4801F02FFC01F0E3
:1080E000ABFB2000290001F073FAFFF791FFC046B7
:1080F0000000080000000000000000000000000078
:10810000C49E0100C0AE01003D9900004D990000E1
:10811000124A53071FD0D11D07239943C0231B01C7
:108120005B1A9B180A000E48026000214160D318B8
:10813000083B072083430B48036059601960991A74
:1081400051601360084B1960084B1960084B80227E
:1081500012061A607047C0231B01E4E7E49E010089
:10816000F0AA0100E09E0100ECAA0100E8AA0100CB
:10817000E4AA010010B5124B1A001B688342FBD31E
:1081800051685418844208D041684418A34209D069
:108190000360904200D0106010BD40680918516023
:1081A0001000F1E7074C2468A34206D05B68C918A9
:1081B000416013681B680360EBE70460E9E7C046B1
:1081C000F0AA0100E09E010070B5050000F00EFB72
:1081D0002C4B1B68002B14D02B4B1B682B4242D11D
:1081E000002D05D008356B0702D007239D430835C5
:1081F000002D3AD0254B1B68AB423DD3244A14686E
:1082000004E0FFF785FFE7E722001C006368AB424C
:1082100002D22368002BF7D11A4B1B68A3422DD042
:10822000166808362368136063685B1B102B08D937
:108230006019420701D072B6FEE743606560FFF740
:1082400099FF626811490B689B1A0B601149096814
:108250008B4201D20F490B600B4B1B6813436360C9
:108260000023236002E0002600E0002600F050FB1F
:10827000730705D072B6FEE70026F7E70026F5E79C
:10828000300070BDE09E0100E4AA0100E8AA0100F0
:10829000F0AA0100ECAA010070B5002820D005006A
:1082A000083D6B680F4A12681A4201D172B6FEE7A8
:1082B000010008390968002901D072B6FEE70838C4
:1082C00004009343436000F091FA6368064A116822
:1082D0008C46634413602800FFF74CFF00F018FB46
:1082E00070BDC046E4AA0100E8AA010082B00023E4
:1082F0000193064B1B68013301D072B6FEE772B6DC
:10830000019B002BFCD002B07047C046809A010050
:108310000B4A13681868203080F30988022080F324
:108320001488BFF36F8F3FBCAE4608BC04BC62B676
:108330001847C046C046C046C046C046C046C046B4
:10834000F8AA010010B5084C00232360074A136007
:10835000074B1868FA21890001F0DCF90138054B58
:1083600018600723236010BD10E000E018E000E073
:108370008C9A010014E000E010B5031F802464040F
:108380001C60043B1960043B02491960143B1A60ED
:10839000403810BDED82000010B50C4B1968FF226B
:1083A00012040A431A601968FF2212060A431A606F
:1083B000FFF7C8FF064B00221A60FFF7A9FF00F085
:1083C0001BFBFFF793FF002010BDC04620ED00E02F
:1083D000809A0100044B802252051A60BFF34F8F30
:1083E000BFF36F8F7047C04604ED00E072B6044AD9
:1083F000136801331360BFF34F8FBFF36F8F704764
:10840000809A0100064B1B68002B01D172B6FEE773
:10841000013B034A1360002B00D162B67047C0468F
:10842000809A0100030008334360012252428260B7
:10843000C36003610023036070470023036170473A
:1084400043684B609A688A6051609960086103686C
:108450000133036070470369416882688A6041683C
:1084600051605A68824206D0002202611A68013ABD
:108470001A601868704782685A60F5E7084B1B68F5
:108480001B68002B04D1074B012252421A6070472F
:10849000034B1B68DB68DB685A68024B1A60F6E71F
:1084A000FCAA0100D4AB0100F0B5DE4657464E46AB
:1084B000C0B582469B46089E0A9F1F4B9C4662445D
:1084C00092003B6B9C46624407239A4391460024EA
:1084D0000F2C08D80B5D3D1934352B700B5D002B2C
:1084E00001D00134F4E743230022FA54062E00D9C8
:1084F0000626FE627E640024BC64381DFFF79DFFE3
:1085000038001830FFF799FF3F6107239E1BBE61BB
:108510007F62FC644933FC545A4651464846FFF793
:108520002BFF3860099B002B00D01F60E0BCBB46CE
:10853000B246A946F0BDC046FFFFFF3F70B500241C
:1085400007E0A3001B1998000E4BC018FFF76AFF45
:108550000134062CF5D90C4D2800FFF763FF0B4CB6
:108560002000FFF75FFF0A48FFF75CFF0948FFF7AD
:1085700059FF0948FFF756FF084B1D60084B1C6068
:1085800070BDC04604AB0100A8AB0100BCAB01004C
:10859000DCAB010008AC0100F4AB0100FCAA010057
:1085A00000AB010010B50400FFF720FF1F4A13685D
:1085B000013313601E4B1B68002B0CD01D4B1B6836
:1085C000002B0DD11A4B1B68DB6AE26A934207D875
:1085D000174B1C6004E0164B1C601368012B1FD066
:1085E000154A136801331360E36A144A1268934210
:1085F00001D9124A1360211D9800C0188000104B49
:10860000C018FFF71DFFFFF7FDFE0A4B1B68002B8C
:1086100005D0074B1B68DA6AE36A9A4203D310BDA0
:10862000FFF78CFFDCE7FFF7D5FEF8E790AB010022
:10863000F8AA0100F0AB0100A0AB0100A4AB01005F
:1086400004AB010010B504005123C35C002B05D01E
:10865000012B0AD0022B07D072B6FEE7006BFFF7A2
:108660001BFE2000FFF718FE10BDFFF715FEFBE70D
:1086700010B514E0FFF7BAFE0B4BDB68DC68201D79
:10868000FFF7E9FE094A1368013B1360084A1368C3
:10869000013B1360FFF7B6FE2000FFF7D3FF044B4A
:1086A0001B68002BE6D110BD08AC010090AB0100A7
:1086B00094AB010010B5FFF7DBFF034B1B68012BE8
:1086C000F9D9FFF787FEF6E704AB010070B586B075
:1086D0000B9C002C09D00C9C002C08D05424049432
:1086E000049C542C05D072B6FEE772B6FEE772B653
:1086F000FEE70C9C0B9D2563512402250C9E3555ED
:1087000000240394029605AC01940A9C0094FFF7A0
:10871000CBFE0C98FFF746FF059806B070BDF0B58C
:1087200087B00490059116001F009000FFF74CFDE4
:10873000041E1FD05420FFF747FD051E16D004630A
:10874000002D1BD000235122AB54039302950D9BA7
:1087500001930C9B00933B00320005990498FFF7AE
:10876000A3FE2800FFF71EFF012005E02000FFF711
:1087700093FDE5E70120404207B0F0BD01204042F3
:10878000FAE7000010B588B000240594069407AA03
:1087900006A905A800F08CFE059B0293069B019399
:1087A00000940023079A0B490B48FFF78FFF0B4BF0
:1087B000186000280CD072B6094B012252421A6090
:1087C000084B02321A60084B00221A60FFF7E4FDE2
:1087D00008B010BD089A0000B5860000D0AB0100BB
:1087E000D4AB0100F0AB01001CAC0100024A1368DD
:1087F000013313607047C0469CAB0100F8B5394B9C
:108800001B68002B61D1384B1D6801351D60002DA0
:1088100012D1364B1B681B68002B01D072B6FEE7E5
:10882000324A1168324B186810601960314A136877
:1088300001331360FFF722FE2F4B1B68AB423AD97E
:1088400000272E4B1B68DA6A93009B189A002C4B6A
:10885000D358012B3ED901273CE00127234B1B684D
:108860001B68002B29D0214B1B68DB68DC68636820
:108870009D4227D3261D3000FFF7EDFDA36A002B94
:1088800003D020001830FFF7E6FDE26A1D4B1B689D
:108890009A4201D91B4B1A6093009B189800184B01
:1088A000C0183100FFF7CCFDE26A144B1B68DB6A8D
:1088B0009A42D2D2D2E70027D0E70F4B0122524290
:1088C0001A60BEE70C4A1360BBE70F4A1368013316
:1088D000136000270D4B1B68002B00D001273800C8
:1088E000F8BDC0469CAB01001CAC0100FCAA010015
:1088F00000AB0100D8AB0100D4AB0100F8AA010025
:1089000004AB0100A4AB010098AB010020AC010056
:1089100070B5314B1B68002B01D172B6FEE7FFF733
:1089200065FD2D4B1A68013A1A601B68002B4DD16A
:108930002A4B1B68002B01D1002448E00024284B5F
:108940001B68002B23D0264BDB68DC682000183026
:10895000FFF781FD251D2800FFF77DFDE36A214A11
:108960001268934201D91F4A13609800C018800012
:108970001D4BC0182900FFF763FD1C4B1B68DB6A09
:10898000E26A9A42DBD31A4B01221A60D7E7002C25
:1089900001D0FFF773FD174B1C68002C0AD1144B54
:1089A0001C68002C13D0FFF715FD01240FE0013CDB
:1089B000002C07D0FFF722FF0028F8D00C4B012233
:1089C0001A60F4E70B4B00221A60E8E70024FFF777
:1089D00019FD200070BDC0469CAB010090AB0100AA
:1089E000DCAB0100A4AB010004AB0100F8AA01005C
:1089F00020AC010098AB010030B51C4B1B68002B6C
:108A000003D01B4B01221A6030BD194B00221A60A3
:108A1000184B1B689A00D2189100174A8A58002AEE
:108A200005D1002B01D0013BF4E772B6FEE7124DF1
:108A30009900CA1890002818426854684460C91800
:108A40008A000832521994420BD09A00D218910031
:108A5000094A52185268D168084A1160054A1360E1
:108A6000D2E7606889006A185060EEE79CAB0100AD
:108A700020AC0100A4AB010004AB0100F8AA010086
:108A800010B5064A136810210B431360032000F051
:108A9000E3FD00F0C3FD002010BDC04600200240F1
:108AA000014B18687047C04624AC010070B5040043
:108AB000FFF7F6FF0500631C02D0044B1B78E41897
:108AC000FFF7EEFF401BA042FAD370BD849A01006D
:108AD00070B5002811DB8308134EC0339B009D59ED
:108AE00003242040C000FF2214008440A5438901D4
:108AF0000A4082402A439A5170BD0F230340083B2D
:108B00009B0806339B00094A944663445C68032231
:108B10001040C000FC3215008540AC4389010A407A
:108B2000824022435A60E7E700E100E000ED00E008
:108B3000002805DB1F2318401E3B8340014A1360B9
:108B40007047C04600E100E0F0B5D6464F464646C5
:108B5000C0B582B0002338E0032600E00026A6401E
:108B600034003C43023292005C4E94515C4A1468DB
:108B70004A46D24326004D46AE434D68ED0302D52A
:108B80004D462C432600564C26606468260016404D
:108B90004D68AD0302D54D462C432600504C66600F
:108BA000A468260016404D68ED0202D54D462C43C0
:108BB00026004B4CA660E46822404D68AD0201D50A
:108BC0004A462243464CE26001330C682200DA40F8
:108BD0007DD001229A4025001540A9461442F3D0C9
:108BE0004C68022C01D0122C0ED1DC080834A400F1
:108BF000275807261E40B6000F25B540AF430D6924
:108C0000B5402E003E4326500468A4465E0003246F
:108C1000A2462700B740B846FF4365464446A543F1
:108C2000AC464C68554625402C00B44065462C4364
:108C300004604C68651E012D03D9112C01D0122C43
:108C400013D184683C40A446CC68B44065462C43AC
:108C500084604468944322004C682409A44601249B
:108C600065462C409C4014434460C26817408A68A3
:108C7000B2403A43C2604A68D200A5D5194CA669F1
:108C800001221643A661A46922400192019A9A0822
:108C9000941CA400114EA75903241C40A4000F26C5
:108CA000A640B7439026F605B04200D156E70E4ED7
:108CB000B04208D00D4EB04207D00D4EB04200D1A8
:108CC0004AE705264BE7012649E7022647E702B0B7
:108CD000E0BCBA46B146A846F0BDC046000001401F
:108CE0000004014000100240000400480008004851
:108CF000000C0048002A01D0816170478162FCE7C6
:108D00004369194202D00904816170478161FCE71F
:108D100070B582B0041E00D12EE20368DB0726D5B1
:108D2000AE4B5A680C231340042B18D0AB4B5A6837
:108D30000C231340082B0ED06368012B3CD0002B72
:108D400051D1A64B1A68A6490A401A601A68A5496B
:108D50000A401A6036E0A14B5B68DB03ECD59F4B01
:108D60001B689B0303D56368002B00D107E22368CF
:108D70009B0772D5994B5B680C221A425DD0974BCA
:108D80005A680C231340082B53D0E368002B00D102
:108D900085E0924A136801210B431360FFF780FEC0
:108DA00005008E4B1B689B0770D4FFF779FE401BB4
:108DB0000228F6D90320E0E1884A116880235B028B
:108DC0000B4313606368002B25D0FFF769FE050095
:108DD000824B1B689B03CAD4FFF762FE401B6428CA
:108DE000F6D90320C9E1052B09D07C4B1A687C49D0
:108DF0000A401A601A687B490A401A60E2E7774B1A
:108E000019688022D2020A431A601968802252022D
:108E10000A431A60D6E7FFF743FE05006F4B1B6855
:108E20009B03A4D5FFF73CFE401B6428F6D9032022
:108E3000A3E16A4B5B68DB03A7D4684B1B689B0705
:108E400003D5E368012B00D09BE164490B68F8224D
:108E500093432269D20013430B6023681B0744D558
:108E6000E369002B2ED05D4A536A01210B43536204
:108E7000FFF716FE0500594B5B6A9B0735D4FFF7D9
:108E80000FFE401B0228F6D9032076E153490B68F8
:108E9000F82293432269D20013430B60DDE74F4A67
:108EA000136801218B431360FFF7FAFD05004B4B5C
:108EB0001B689B07D1D5FFF7F3FD401B0228F6D9AD
:108EC00003205AE1454A536A01218B435362FFF75D
:108ED000E7FD0500414B5B6A9B0706D5FFF7E0FD08
:108EE000401B0228F6D9032047E123685B0700D422
:108EF00080E03A4BDB69DB001DD4384AD169802021
:108F000040050143D161D36903400193019B0125D1
:108F1000354B1B68DB0510D5A368012B21D0002B36
:108F200036D12E4B1A6A01218A431A621A6A03311A
:108F30008A431A621AE00025EAE72B4A1168802367
:108F40005B000B431360FFF7ABFD0600264B1B686D
:108F5000DB05E1D4FFF7A4FD801B6428F6D90320CC
:108F60000BE11E4A136A01210B431362A368002B15
:108F700024D0FFF795FD0600184B1B6A9B0737D4DA
:108F8000FFF78EFD801B194B9842F5D90320F4E0C2
:108F9000052B09D0114B1A6A01218A431A621A6AF9
:108FA00003318A431A62E1E70C4B1A6A04210A432F
:108FB0001A621A6A03390A431A62D7E7FFF770FD8B
:108FC0000600064B1B6A9B0712D5FFF769FD801B45
:108FD000064B9842F5D90320CFE0C046001002406E
:108FE000FFFFFEFFFFFFFBFF007000408813000043
:108FF000012D33D02368DB0610D56369012B33D0F4
:10900000053351D1654A536B04218B435363536B32
:10901000F4318B43A169C9000B435363236A002BCE
:1090200000D1B0E05D4A51680C220A40082A00D104
:109030008AE0022B4FD0594A136859490B401360FC
:10904000FFF72EFD0400554B1B689B017AD5FFF7F7
:1090500027FD001B0228F6D903208EE04F4AD36972
:1090600050490B40D361C5E74C4B5A6B04210A436E
:109070005A635A6B03390A435A63FFF711FD05001F
:10908000464B5B6B9B0706D4FFF70AFD401B02288B
:10909000F6D9032071E041494B6BF8229343A26952
:1090A000D20013434B63B9E73C4B5A6B04210A438C
:1090B0005A635A6B03398A435A63FFF7F1FC050080
:1090C000364B5B6B9B07A9D5FFF7EAFC401B0228D8
:1090D000F6D9032051E0314A136831490B4013603F
:1090E000FFF7DEFC05002D4B1B689B0106D5FFF743
:1090F000D7FC401B0228F6D903203EE0274BDA6A52
:109100000F218A43E16A0A43DA625A6826490A4013
:10911000A16A606A01430A435A60196880225204B6
:109120000A431A60FFF7BCFC04001C4B1B689B0140
:1091300006D4FFF7B5FC001B0228F6D903201CE07B
:1091400000201AE0002018E0012B1ED0134B5A68B3
:10915000D96A80235B021340606A834217D10F23D0
:109160000B40E16A8B4214D1F0239B031A40A36A9F
:109170009A4210D1002000E0012002B070BD012011
:10918000FBE70120F9E70020F7E70120F5E70120E0
:10919000F3E70120F1E70120EFE7C04600100240AD
:1091A000FFFFFFFEFFFFFFEFFFFFC2FF10B588B01C
:1091B00004AA164B13CB13C21B6813606A46144BE8
:1091C00013CB13C21B681360124B5A680C23134055
:1091D000082B02D0104808B010BD910C073319407D
:1091E00004A8445C0B49C96A0B406946C95CD303B7
:1091F00004D5094800F08EFA6043ECE763011B1BBD
:109200009801C01AC00000190002E4E7109A00009B
:10921000249A00000010024000127A0070B5040089
:109220000D00002800D17EE0434B1A680123134053
:109230008B420AD240490B68012293432B430B60B7
:109240000B681A40AA4200D06FE023689A070ED537
:109250005B0705D5394A5168E023DB000B435360B7
:10926000364A5368F0218B43A1680B43536023684F
:10927000DB072DD56368012B1ED0022B22D02F4A8D
:109280001268920753D52D494A680320824313433D
:109290004B60FFF705FC0600284B5B680C221A4068
:1092A00063689B009A4213D0FFF7FAFB801B244BA4
:1092B0009842F1D9032035E0204A12689203E2D4A3
:1092C00001202FE01D4A12689201DCD4012029E020
:1092D000194B1A6801231340AB4209D916490B6890
:1092E000012293432B430B600B681A40AA4220D102
:1092F00023685B0706D5114A536812490B40E168A1
:109300000B435360FFF752FF0C4B5A6812090F23AF
:1093100013400D4AD35CD8400C4B1860032000F07A
:109320009BF9002070BD0120FCE70120FAE7012035
:10933000F8E70120F6E7C046002002400010024096
:1093400088130000FFF8FFFF489A00008C9A010084
:10935000014B18687047C0468C9A010010B5FFF7A2
:10936000F7FF044B5A68120A07231340024AD35CE2
:10937000D84010BD00100240589A000010B50723D5
:1093800003600A4B5C680322224042605C68F02262
:10939000224082605B68E022D2001340C360044B2D
:1093A0001A68012313400B6010BDC0460010024034
:1093B0000020024070470268D36801210B43D3604C
:1093C0000268916807230B40062B03D01368012124
:1093D0000B431360002070470368214A904206D077
:1093E0008022D205904202D01E4A904203D17022C0
:1093F00093434A6813431A4A904212D08022D205FE
:1094000090420ED0174A90420BD0174A904208D093
:10941000164A904205D0164A904202D0154A904210
:1094200003D1154A1340CA681343802293434A6903
:10943000134303608B68C3620B688362084B9842D6
:1094400008D00A4B984205D0094B984202D0094BEC
:10945000984201D10B690363012343617047C04601
:10946000002C01400004004000200040004001406A
:109470000044014000480140FFFCFFFF70B5041E9E
:1094800014D03D23C35C002B0AD03D250223635535
:10949000210001C9FFF7A0FF01236355002070BD23
:1094A0003C330022C254FFF785FFEEE70120F6E7C8
:1094B000034B0360034B0B60802313607047C0466F
:1094C00028AE010028AC010010B5802189000448B5
:1094D000FFF716FCC8204000FFF7E8FAF5E7C046A2
:1094E0000008004810B5802149000448FFF708FC37
:1094F000FA20C000FFF7DAFAF5E7C0460008004896
:10950000F0B589B01422002103A800F0B9F9184B76
:10951000596980208002014359615A6902400192D1
:10952000019A5A69802109030A435A615B690B4019
:109530000293029BC027BF000E4D00223900280075
:10954000FFF7D8FB01260396002404940223059319
:10955000902003A9C005FFF7F7FA03970496059436
:10956000069403A92800FFF7EFFA09B0F0BDC04642
:10957000001002400008004872B6FEE700B591B046
:109580003022002104A800F07BF910220021684657
:1095900000F076F902230493013B07930F330893FD
:1095A00004A8FFF7B5FB00280DD107230093002383
:1095B00001930293039300216846FFF72FFE0028D2
:1095C00003D111B000BDFFF7D7FFFFF7D5FF0000B3
:1095D00030B583B0FFF754FAFFF7D0FFFFF790FFE5
:1095E00000250195022400940023802207490848A1
:1095F000FFF795F80195009400238022054906485D
:10960000FFF78DF8FFF7BEF8FEE7C046389A000076
:10961000E5940000409A0000C994000000B583B0B2
:109620000C4B996901221143996199690A40009292
:10963000009ADA69802149050A43DA61DB690B4047
:109640000193019B0220002203214042FFF740FAD0
:1096500003B000BD0010024030B587B00500204ABD
:109660009169802000010143916193690340009357
:10967000009B01A902A8FFF781FE059B002B16D1D4
:10968000FFF76CFE174900F045F8431E1648174ACD
:109690000260174AC26043600023036183608361F4
:1096A000FFF7ECFE041E06D0200007B030BDFFF728
:1096B00055FE4000E6E70C48FFF77DFE041EF3D19F
:1096C0000D20FFF735FA032D01D90124ECE7002224
:1096D00029000D20FFF7FCF9064B1D60E4E7C046AA
:1096E0000010024040420F007CAE0100002C0140FF
:1096F000E7030000889A010010B500F097F81623E0
:1097000003600120404210BD10B501214942FFF71E
:10971000F3FFFEE7002243088B4274D303098B4218
:109720005FD3030A8B4244D3030B8B4228D3030C31
:109730008B420DD3FF22090212BA030C8B4202D3D3
:109740001212090265D0030B8B4219D300E0090AFB
:10975000C30B8B4201D3CB03C01A5241830B8B4204
:1097600001D38B03C01A5241430B8B4201D34B03ED
:10977000C01A5241030B8B4201D30B03C01A524152
:10978000C30A8B4201D3CB02C01A5241830A8B42D7
:1097900001D38B02C01A5241430A8B4201D34B02C0
:1097A000C01A5241030A8B4201D30B02C01A524124
:1097B000CDD2C3098B4201D3CB01C01A52418309D8
:1097C0008B4201D38B01C01A524143098B4201D312
:1097D0004B01C01A524103098B4201D30B01C01A3D
:1097E0005241C3088B4201D3CB00C01A52418308B7
:1097F0008B4201D38B00C01A524143088B4201D3E4
:109800004B00C01A5241411A00D201465241104643
:109810007047FFE701B5002000F006F802BDC04622
:109820000029F7D076E770477047C046014B1868AB
:109830007047C046909A010070B500260C4D0D4C43
:10984000641BA410A64209D10026FEF7D9FB0A4DDD
:109850000A4C641BA410A64205D170BDB300EB589E
:1098600098470136EEE7B300EB5898470136F2E728
:10987000709A0100709A0100709A0100789A0100B4
:1098800003008218934200D1704719700133F9E741
:10989000F0B5284B85B0039018680F0000F06AF807
:1098A000254B1B680193019BFC33DD6C002D05D11A
:1098B000204B186800F05FF805B0F0BD6C68661EBC
:1098C000A4002C19002EF3DB002F07D02300FC335B
:1098D0009B68BB4202D0013E043CF3E76A686368C0
:1098E000013AB24217D16E60002BF4D06A682800AA
:1098F00002920122B2408530FF30416811420DD101
:109900009847019B6A680299FC33DB6C8A42CAD192
:109910009D42E0D0C7E700226260E5E72100806851
:109920000831C96F104202D103989847E9E708004F
:109930009847E6E7C09E0100609A0000002310B53A
:1099400001001A00180000F017F810BD70B5074D9F
:10995000074C641BA410002C02D100F04FF870BD1E
:10996000013CA300EB589847F5E7C046789A010000
:109970007C9A010070477047F7B51E4F04003868A5
:10998000160000910193FFF7F5FF1B4B19680B00C0
:10999000FC33DA6C002A03D10A004D32FF32DA645C
:1099A000536838681F2B04DDFFF7E5FF01204042B4
:1099B000FEBD002C14D0990051180F0088373E606E
:1099C000012716009F408536FF367568FC313D4300
:1099D0007560019DCD60022C02D1B1680F43B76064
:1099E000591C5160023300999B009950FFF7C3FF47
:0C99F0000020DDE7C09E0100609A00002E
:0C99FC00F8B5C046F8BC08BC9E46704799
:109A080049444C4500000000020304050607080904
:109A18000A0B0C0D0E0F10100000000001020304C9
:109A280005060708090A0B0C0D0E0F1000000000B0
:109A38005461736B310000005461736B3200000095
:109A480000000000000000000102030406070809E6
:0C9A58000000000001020304989A0100C5
:089A64002CE6FF7F0100000069
:049A6C0000000000F6
:020000021000EC
:089A700031800000718000004C
:049A78004980000021
:109A8000AAAAAAAA010000000400000000127A009D
:109A9000989A01000000000000000000849D010071
:109AA000EC9D0100549E0100000000000000000039
:109AB00000000000000000000000000000000000A6
:109AC0000000000000000000000000000000000096
:109AD0000000000000000000000000000000000086
:109AE0000000000000000000000000000000000076
:109AF0000000000000000000000000000000000066
:109B00000000000000000000000000000000000055
:109B10000000000000000000000000000000000045
:109B20000000000000000000000000000000000035
:109B30000000000000000000000000000000000025
:109B400001000000000000000E33CDAB34126DE6C2
:109B5000ECDE05000B00000000000000000000002B
:109B600000000000000000000000000000000000F5
:109B700000000000000000000000000000000000E5
:109B800000000000000000000000000000000000D5
:109B900000000000000000000000000000000000C5
:049EC000BCAE010033
:040000030000809DDC
:00000001FF
